{"abi":[{"type":"function","name":"eip712Domain","inputs":[],"outputs":[{"name":"fields","type":"bytes1","internalType":"bytes1"},{"name":"name","type":"string","internalType":"string"},{"name":"version","type":"string","internalType":"string"},{"name":"chainId","type":"uint256","internalType":"uint256"},{"name":"verifyingContract","type":"address","internalType":"address"},{"name":"salt","type":"bytes32","internalType":"bytes32"},{"name":"extensions","type":"uint256[]","internalType":"uint256[]"}],"stateMutability":"view"},{"type":"function","name":"encryptedNumber","inputs":[],"outputs":[{"name":"","type":"uint256","internalType":"euint8"}],"stateMutability":"view"},{"type":"function","name":"getEncryptedNumber","inputs":[{"name":"permission","type":"tuple","internalType":"struct Permission","components":[{"name":"publicKey","type":"bytes32","internalType":"bytes32"},{"name":"signature","type":"bytes","internalType":"bytes"}]}],"outputs":[{"name":"","type":"string","internalType":"string"}],"stateMutability":"view"},{"type":"function","name":"setEncryptedNumber","inputs":[{"name":"_encryptedNumber","type":"tuple","internalType":"struct inEuint8","components":[{"name":"data","type":"bytes","internalType":"bytes"},{"name":"securityZone","type":"int32","internalType":"int32"}]}],"outputs":[],"stateMutability":"nonpayable"},{"type":"event","name":"EIP712DomainChanged","inputs":[],"anonymous":false},{"type":"error","name":"InvalidShortString","inputs":[]},{"type":"error","name":"SignerNotMessageSender","inputs":[]},{"type":"error","name":"SignerNotOwner","inputs":[]},{"type":"error","name":"StringTooLong","inputs":[{"name":"str","type":"string","internalType":"string"}]}],"bytecode":{"object":"0x610160604052348015610010575f80fd5b506040805180820182526011815270233432b734bc102832b936b4b9b9b4b7b760791b602080830191909152825180840190935260038352620312e360ec1b908301529061005e825f610107565b6101205261006d816001610107565b61014052815160208084019190912060e052815190820120610100524660a0526100f960e05161010051604080517f8b73c3c69bb8fe3d512ecc4cf759cc79239f7b179b0ffacaa9a75d522b39400f60208201529081019290925260608201524660808201523060a08201525f9060c00160405160208183030381529060405280519060200120905090565b60805250503060c052610345565b5f6020835110156101225761011b83610139565b9050610133565b8161012d8482610217565b5060ff90505b92915050565b5f80829050601f8151111561016c578260405163305a27a960e01b815260040161016391906102d6565b60405180910390fd5b805161017782610322565b179392505050565b634e487b7160e01b5f52604160045260245ffd5b600181811c908216806101a757607f821691505b6020821081036101c557634e487b7160e01b5f52602260045260245ffd5b50919050565b601f82111561021257805f5260205f20601f840160051c810160208510156101f05750805b601f840160051c820191505b8181101561020f575f81556001016101fc565b50505b505050565b81516001600160401b038111156102305761023061017f565b6102448161023e8454610193565b846101cb565b602080601f831160018114610277575f84156102605750858301515b5f19600386901b1c1916600185901b1785556102ce565b5f85815260208120601f198616915b828110156102a557888601518255948401946001909101908401610286565b50858210156102c257878501515f19600388901b60f8161c191681555b505060018460011b0185555b505050505050565b5f602080835283518060208501525f5b81811015610302578581018301518582016040015282016102e6565b505f604082860101526040601f19601f8301168501019250505092915050565b805160208083015191908110156101c5575f1960209190910360031b1b16919050565b60805160a05160c05160e0516101005161012051610140516109cd6103875f395f6101a901525f61017801525f50505f50505f50505f50505f50506109cd5ff3fe608060405234801561000f575f80fd5b506004361061004a575f3560e01c8063119110de1461004e57806384b0196e14610077578063d07db1ab14610092578063d903455b146100a7575b5f80fd5b61006161005c366004610628565b6100be565b60405161006e9190610705565b60405180910390f35b61007f6100d5565b60405161006e9796959493929190610717565b6100a56100a03660046107d7565b610133565b005b6100b060025481565b60405190815260200161006e565b60606100cf600254835f015161014a565b92915050565b5f6060805f805f60606100e6610171565b6100ee6101a2565b604080515f808252602082019092527f0f000000000000000000000000000000000000000000000000000000000000009b939a50919850469750309650945092509050565b61014461013f8261080e565b6101cf565b60025550565b60608261015d5761015a5f6101e1565b92505b826101695f82856101ed565b949350505050565b606061019d7f00000000000000000000000000000000000000000000000000000000000000005f6102a2565b905090565b606061019d7f000000000000000000000000000000000000000000000000000000000000000060016102a2565b5f6100cf825f0151836020015161034b565b5f6100cf825f80610357565b6060608063a1848ff385610200866103ff565b6040805160208101889052016040516020818303038152906040526040518463ffffffff1660e01b815260040161023993929190610869565b5f60405180830381865afa158015610253573d5f803e3d5ffd5b505050506040513d5f823e601f3d9081017fffffffffffffffffffffffffffffffffffffffffffffffffffffffffffffffe016820160405261029891908101906108ce565b90505b9392505050565b606060ff83146102bc576102b583610429565b90506100cf565b8180546102c890610913565b80601f01602080910402602001604051908101604052809291908181526020018280546102f490610913565b801561033f5780601f106103165761010080835404028352916020019161033f565b820191905f5260205f20905b81548152906001019060200180831161032257829003601f168201915b505050505090506100cf565b5f61029b835f84610466565b5f6060608063ba19ac2861036a876103ff565b86866040518463ffffffff1660e01b815260040161038a93929190610964565b5f60405180830381865afa1580156103a4573d5f803e3d5ffd5b505050506040513d5f823e601f3d9081017fffffffffffffffffffffffffffffffffffffffffffffffffffffffffffffffe01682016040526103e991908101906108ce565b90506103f6816020015190565b95945050505050565b60408051602080825281830190925260609160208201818036833750505060208101929092525090565b60605f610435836104ac565b6040805160208082528183019092529192505f91906020820181803683375050509182525060208101929092525090565b6040517f21b50ba30000000000000000000000000000000000000000000000000000000081525f906060906080906321b50ba39061038a90879089908890600401610992565b5f60ff8216601f8111156100cf576040517fb3512b0c00000000000000000000000000000000000000000000000000000000815260040160405180910390fd5b7f4e487b71000000000000000000000000000000000000000000000000000000005f52604160045260245ffd5b6040805190810167ffffffffffffffff8111828210171561053c5761053c6104ec565b60405290565b604051601f82017fffffffffffffffffffffffffffffffffffffffffffffffffffffffffffffffe016810167ffffffffffffffff81118282101715610589576105896104ec565b604052919050565b5f67ffffffffffffffff8211156105aa576105aa6104ec565b50601f017fffffffffffffffffffffffffffffffffffffffffffffffffffffffffffffffe01660200190565b5f82601f8301126105e5575f80fd5b81356105f86105f382610591565b610542565b81815284602083860101111561060c575f80fd5b816020850160208301375f918101602001919091529392505050565b5f60208284031215610638575f80fd5b813567ffffffffffffffff8082111561064f575f80fd5b9083019060408286031215610662575f80fd5b61066a610519565b8235815260208301358281111561067f575f80fd5b61068b878286016105d6565b60208301525095945050505050565b5f5b838110156106b457818101518382015260200161069c565b50505f910152565b5f81518084526106d381602086016020860161069a565b601f017fffffffffffffffffffffffffffffffffffffffffffffffffffffffffffffffe0169290920160200192915050565b602081525f61029b60208301846106bc565b7fff00000000000000000000000000000000000000000000000000000000000000881681525f602060e0602084015261075360e084018a6106bc565b8381036040850152610765818a6106bc565b6060850189905273ffffffffffffffffffffffffffffffffffffffff8816608086015260a0850187905284810360c0860152855180825260208088019350909101905f5b818110156107c5578351835292840192918401916001016107a9565b50909c9b505050505050505050505050565b5f602082840312156107e7575f80fd5b813567ffffffffffffffff8111156107fd575f80fd5b82016040818503121561029b575f80fd5b5f6040823603121561081e575f80fd5b610826610519565b823567ffffffffffffffff81111561083c575f80fd5b610848368286016105d6565b82525060208301358060030b811461085e575f80fd5b602082015292915050565b60ff84168152606060208201525f61088460608301856106bc565b828103604084015261089681856106bc565b9695505050505050565b5f6108ad6105f384610591565b90508281528383830111156108c0575f80fd5b61029b83602083018461069a565b5f602082840312156108de575f80fd5b815167ffffffffffffffff8111156108f4575f80fd5b8201601f81018413610904575f80fd5b610169848251602084016108a0565b600181811c9082168061092757607f821691505b60208210810361095e577f4e487b71000000000000000000000000000000000000000000000000000000005f52602260045260245ffd5b50919050565b606081525f61097660608301866106bc565b905060ff841660208301528260030b6040830152949350505050565b60ff84168152606060208201525f6109ad60608301856106bc565b90508260030b604083015294935050505056fea164736f6c6343000819000a","linkReferences":{}},"methodIdentifiers":{"eip712Domain()":"84b0196e","encryptedNumber()":"d903455b","getEncryptedNumber((bytes32,bytes))":"119110de","setEncryptedNumber((bytes,int32))":"d07db1ab"},"id":1}